:020000040800F2
:100000000080012085030008BD020008CB02000823
:10001000D1020008D7020008DD020008000000003D
:10002000000000000000000000000000E3020008E3
:10003000F102000800000000FF0200080D030008A4
:10004000D5030008D5030008D5030008D503000830
:10005000D5030008D5030008D5030008D503000820
:10006000D5030008D5030008D5030008D503000810
:10007000D5030008D5030008D5030008D503000800
:10008000D5030008D5030008D5030008D5030008F0
:10009000D5030008D5030008D5030008D5030008E0
:1000A000D5030008D5030008D5030008D5030008D0
:1000B000D5030008D5030008D5030008D5030008C0
:1000C000D5030008D5030008D5030008D5030008B0
:1000D000D5030008D5030008D5030008D5030008A0
:1000E000D5030008D5030008D5030008D503000890
:1000F000D5030008D5030008D5030008D503000880
:10010000D5030008D5030008D5030008D50300086F
:10011000D5030008D5030008D5030008D50300085F
:10012000D5030008D5030008D5030008D50300084F
:10013000D5030008D5030008D5030008D50300083F
:10014000D5030008D5030008D5030008D50300082F
:10015000D5030008D5030008D5030008D50300081F
:10016000D5030008D5030008D5030008D50300080F
:10017000D5030008D50300080000000000000000BF
:08018000D5030008D5030008B7
:1001880010B5054C237833B9044B13B10448AFF3C9
:1001980000800123237010BD0C0000200000000027
:1001A800101D000808B5034B1BB103490348AFF302
:1001B800008008BD0000000010000020101D00088D
:1001C80080B596B000AF07F1140344220021184609
:1001D80001F092FD3B4600221A605A609A60DA608C
:1001E8001A6101237B614FF48033BB610223FB63F7
:1001F80003233B6401237B641423BB640723FB6450
:1002080002233B6502237B6507F11403184600F0BF
:1002180073FD0346002B01D000F021F80F233B604B
:1002280003237B600023BB600023FB6000233B614A
:100238003B460421184601F045F90346002B01D03E
:1002480000F00DF84FF4007000F000FD0346002B9D
:1002580001D000F004F800BF5837BD4680BD80B417
:1002680000AF00BFBD465DF8047B704780B483B023
:1002780000AF0F4B1B6E0E4A43F0010313660C4B85
:100288001B6E03F001037B607B68094B9B6D084A7A
:1002980043F080539365064B9B6D03F080533B609E
:1002A8003B6800BF0C37BD465DF8047B704700BF54
:1002B8000010024080B400AF00BFBD465DF8047B6B
:1002C800704780B400AFFEE780B400AFFEE780B4AB
:1002D80000AFFEE780B400AFFEE780B400AF00BF18
:1002E800BD465DF8047B704780B400AF00BFBD46D3
:1002F8005DF8047B704780B400AF00BFBD465DF871
:10030800047B704780B500AF00F0B6F800BF80BD31
:1003180080B400AF174BD3F88830164A43F4700303
:10032800C2F88830144B1B68134A43F0010313606A
:10033800114B00229A60104B1B680F4A23F0A853F8
:1003480023F4102313600C4B4FF48052DA600A4BED
:100358001B68094A23F480231360074B00229A6123
:10036800044B4FF000629A6000BFBD465DF8047B05
:10037800704700BF00ED00E000100240DFF834D005
:10038800FFF7C6FF002103E00B4B5B5843500431D5
:100398000A480B4B42189A42F6D30A4A02E0002355
:1003A80042F8043B084B9A42F9D301F081FC01F072
:1003B800B1FBFEE700800120781D00080000002046
:1003C8000C0000200C0000205C000020FEE780B537
:1003D80082B000AF0023FB71032000F041F9002038
:1003E80000F00EF80346002B02D00123FB7101E058
:1003F800FFF73CFFFB7918460837BD4680BD000073
:1004080080B584B000AF78600023FB73174B1B786E
:10041800002B23D0164B1A68144B1B7819464FF43F
:100428007A73B3FBF1F3B2FBF3F3184600F03FF92C
:100438000346002B0FD17B680F2B09D8002279685F
:100448004FF0FF3000F017F90A4A7B68136007E0A5
:100458000123FB7304E00123FB7301E00123FB7319
:10046800FB7B18461037BD4680BD00BF0800002042
:10047800000000200400002080B400AF064B1B7869
:100488001A46064B1B681344044A136000BFBD4656
:100498005DF8047B704700BF08000020580000206A
:1004A80080B400AF034B1B681846BD465DF8047B5B
:1004B800704700BF5800002080B584B000AF786056
:1004C800FFF7EEFFB8607B68FB60FB68B3F1FF3FA6
:1004D80005D0094B1B781A46FB681344FB6000BF24
:1004E800FFF7DEFF0246BB68D31AFA689A42F7D8CC
:1004F80000BF1037BD4680BD0800002080B485B01D
:1005080000AF78607B6803F00703FB600C4BDB6887
:10051800BB60BA684FF6FF031340BB60FB681A0262
:10052800BB68134343F0BF6343F40033BB60044A22
:10053800BB68D36000BF1437BD465DF8047B7047C5
:1005480000ED00E080B400AF044BDB681B0A03F049
:1005580007031846BD465DF8047B704700ED00E0D0
:1005680080B483B000AF03463960FB7197F9073058
:10057800002B0ADB3B68DAB20C4997F90730120105
:10058800D2B20B4483F800230AE03B68DAB2084988
:10059800FB7903F00F03043B1201D2B20B441A7625
:1005A80000BF0C37BD465DF8047B704700E100E0F2
:1005B80000ED00E080B489B000AFF860B9607A60FF
:1005C800FB6803F00703FB61FB69C3F10703042B16
:1005D80028BF0423BB61FB690433062B02D9FB69DE
:1005E800033B00E000237B614FF0FF32BB6902FA56
:1005F80003F3DA43BB681A407B699A404FF0FF3136
:100608007B6901FA03F3D9437B680B40134318460F
:100618002437BD465DF8047B7047000080B582B082
:1006280000AF78607B68013BB3F1807F01D3012381
:100638000FE00A4A7B68013B53600F214FF0FF30FF
:10064800FFF78EFF054B00229A60044B07221A60C1
:10065800002318460837BD4680BD00BF10E000E003
:1006680080B582B000AF78607868FFF747FF00BFB9
:100678000837BD4680BD80B586B000AF0346B96077
:100688007A60FB7300237B61FFF75CFF78617A680F
:10069800B9687869FFF78EFF024697F90F3011465F
:1006A8001846FFF75DFF00BF1837BD4680BD80B50F
:1006B80082B000AF78607868FFF7B0FF034618464D
:1006C8000837BD4680BD000080B487B000AF7860B1
:1006D800396000237B617FE13B681A6801217B69EF
:1006E80001FA03F31340FB60FB68002B00F07181F3
:1006F8003B685B68012B0BD03B685B68022B07D01B
:100708003B685B68112B03D03B685B68122B30D1C8
:100718007B689B683B617B695B00032202FA03F3F9
:10072800DB433A6913403B613B68DA687B695B00ED
:1007380002FA03F33A6913433B617B683A699A60AA
:100748007B685B683B6101227B6902FA03F3DB4348
:100758003A6913403B613B685B681B0903F001027F
:100768007B6902FA03F33A6913433B617B683A6990
:100778005A603B685B6803F00303032B18D17B685E
:10078800DB6A3B6101227B6902FA03F3DB433A69C6
:1007980013403B613B685B68DB0803F001027B693F
:1007A80002FA03F33A6913433B617B683A69DA62F8
:1007B8007B68DB683B617B695B00032202FA03F319
:1007C800DB433A6913403B613B689A687B695B008D
:1007D80002FA03F33A6913433B617B683A69DA60CA
:1007E8003B685B68022B03D03B685B68122B23D104
:1007F8007B69DA087B68083253F822303B617B69F1
:1008080003F007039B000F2202FA03F3DB433A6964
:1008180013403B613B681A697B6903F007039B003F
:1008280002FA03F33A6913433B617B69DA087B6890
:100838000832396943F822107B681B683B617B6981
:100848005B00032202FA03F3DB433A6913403B617E
:100858003B685B6803F003027B695B0002FA03F301
:100868003A6913433B617B683A691A603B685B6885
:1008780003F08053002B00F0AC805E4B1B6E5D4A8A
:1008880043F0010313665B4B1B6E03F00103BB606F
:10089800BB68594A7B699B08023352F823303B6195
:1008A8007B6903F003039B000F2202FA03F3DB4387
:1008B8003A6913403B617B68B3F1904F25D07B6860
:1008C8004E4A93421FD07B684D4A934219D07B68A9
:1008D8004C4A934213D07B684B4A93420DD07B68B5
:1008E8004A4A934207D07B68494A934201D106237A
:1008F8000CE007230AE0052308E0042306E00323AD
:1009080004E0022302E0012300E000237A6902F0F8
:100918000302920093403A6913433B6136497B696D
:100928009B0802333A6941F823203A4B1B683B6124
:10093800FB68DB433A6913403B613B685B6803F43F
:100948008033002B03D03A69FB6813433B61314A7B
:100958003B6913602F4B5B683B61FB68DB433A697B
:1009680013403B613B685B6803F40033002B03D002
:100978003A69FB6813433B61264A3B695360254B40
:100988009B683B61FB68DB433A6913403B613B680A
:100998005B6803F48013002B03D03A69FB681343A8
:1009A8003B611C4A3B6993601A4BDB683B61FB68FF
:1009B800DB433A6913403B613B685B6803F400130F
:1009C800002B03D03A69FB6813433B61114A3B692A
:1009D800D3607B6901337B613B681A687B6922FAC3
:1009E80003F3002B7FF478AE00BF1C37BD465DF8DB
:1009F800047B7047001002400000014000040048DA
:100A080000080048000C0048001000480014004886
:100A1800001800480004014080B487B000AF786037
:100A2800396000237B61CDE001227B6902FA03F380
:100A38003A6813403B613B69002B00F0C080684A6C
:100A48007B699B08023352F82330FB607B6903F013
:100A580003039B000F2202FA03F3FA681340FB60BA
:100A68007B68B3F1904F25D07B685E4A93421FD0D4
:100A78007B685D4A934219D07B685C4A934213D0E5
:100A88007B685B4A93420DD07B685A4A934207D0F1
:100A98007B68594A934201D106230CE007230AE0F8
:100AA800052308E0042306E0032304E0022302E010
:100AB800012300E000237A6902F0030292009340C8
:100AC800FA689A4232D14D4B1A683B69DB434B496D
:100AD80013400B60494B5A683B69DB434749134055
:100AE8004B60464B9A683B69DB43444913408B6033
:100AF800424BDA683B69DB4340491340CB607B6972
:100B080003F003039B000F2202FA03F3FB60344A4D
:100B18007B699B08023352F82310FB68DA4330489C
:100B28007B699B080A40023340F823207B681A68D7
:100B38007B695B00032101FA03F31A437B681A609F
:100B48007B69DA087B68083253F822107B6903F066
:100B580007039B000F2202FA03F3DB437A69D208EA
:100B680019407B68083243F822107B689A687B69D1
:100B78005B00032101FA03F3DB431A407B689A60A8
:100B88007B685A6801217B6901FA03F3DB431A4049
:100B98007B685A607B68DA687B695B00032101FA2D
:100BA80003F3DB431A407B68DA607B68DA6A012169
:100BB8007B6901FA03F3DB431A407B68DA627B69DD
:100BC80001337B613A687B6922FA03F3002B7FF4D7
:100BD8002BAF00BF1C37BD465DF8047B704700BFD4
:100BE800000001400004004800080048000C0048CC
:100BF8000010004800140048001800480004014094
:100C080080B483B000AF78600B467B8013467B705E
:100C18007B78002B03D07A887B689A6102E07A8817
:100C28007B689A6200BF0C37BD465DF8047B70474D
:100C380080B400AF044B1B6803F4C0631846BD467C
:100C48005DF8047B704700BF0070004080B485B039
:100C580000AF78607B68B3F5007F30D1234B1B6809
:100C680003F4C063B3F5007F38D0204B1B6823F42E
:100C7800C0631E4A43F4007313601D4B1B68322285
:100C880002FB03F31B4AA2FB03239B0C0133FB600B
:100C980002E0FB68013BFB60144B5B6903F4806373
:100CA800B3F5806F02D1FB68002BF2D10F4B5B6963
:100CB80003F48063B3F5806F10D103230FE00B4B6F
:100CC8001B6803F4C063B3F5806F07D0074B1B683C
:100CD80023F4C063054A43F4806313600023184675
:100CE8001437BD465DF8047B704700BF00700040B4
:100CF8000000002083DE1B4380B588B000AF786019
:100D08007B68002B01D10123D4E3A14B9B6803F03E
:100D18000C03BB619E4BDB6803F003037B617B68BC
:100D28001B6803F01003002B00F0E480BB69002B64
:100D380007D0BB690C2B40F08B807B69012B40F0FE
:100D48008780934B1B6803F00203002B05D07B6858
:100D58009B69002B01D10123ACE37B681A6A8C4B99
:100D68001B6803F00803002B04D0894B1B6803F0B1
:100D7800F00305E0864BD3F894301B0903F0F00329
:100D8800934223D27B681B6A184600F007FD03468E
:100D9800002B01D001238DE37D4B1B687C4A43F077
:100DA800080313607A4B1B6823F0F0027B681B6A08
:100DB800774913430B60764B5B6823F47F427B686B
:100DC800DB691B02724913434B6025E0704B1B68BB
:100DD8006F4A43F0080313606D4B1B6823F0F00261
:100DE8007B681B6A6A4913430B60694B5B6823F491
:100DF8007F427B68DB691B02654913434B60BB6913
:100E0800002B09D17B681B6A184600F0C7FC034613
:100E1800002B01D001234DE300F036FC01465C4B6A
:100E28009B681B0903F00F035A4AD35C03F01F03A6
:100E380021FA03F3584A1360584B1B681846FFF70A
:100E4800DFFA0346FB73FB7B002B52D0FB7B31E3BD
:100E58007B689B69002B32D04D4B1B684C4A43F092
:100E680001031360FFF71CFB386108E0FFF718FB6C
:100E780002463B69D31A022B01D903231AE3444BD8
:100E88001B6803F00203002BF0D0414B1B68404A5B
:100E980043F0080313603E4B1B6823F0F0027B68A5
:100EA8001B6A3B4913430B60394B5B6823F47F4251
:100EB8007B68DB691B02364913434B601AE0344BED
:100EC8001B68334A23F001031360FFF7E9FA38611E
:100ED80008E0FFF7E5FA02463B69D31A022B01D96D
:100EE8000323E7E22A4B1B6803F00203002BF0D12F
:100EF80000E000BF7B681B6803F00103002B74D07F
:100F0800BB69082B05D0BB690C2B0ED17B69032B61
:100F18000BD11F4B1B6803F40033002B64D07B6894
:100F28005B68002B60D10123C4E27B685B68B3F582
:100F3800803F06D1164B1B68154A43F48033136073
:100F48001DE07B685B68B3F5A02F0CD1104B1B68C4
:100F58000F4A43F4802313600D4B1B680C4A43F47B
:100F6800803313600BE00A4B1B68094A23F4803373
:100F78001360074B1B68064A23F4802313607B68C1
:100F88005B68002B1CD0FFF78BFA386111E000BFBB
:100F980000100240281D0008000000200400002066
:100FA800FFF77EFA02463B69D31A642B01D9032363
:100FB80080E2AF4B1B6803F40033002BF0D014E041
:100FC800FFF76EFA386108E0FFF76AFA02463B69F4
:100FD800D31A642B01D903236CE2A54B1B6803F4D5
:100FE8000033002BF0D100E000BF7B681B6803F0E2
:100FF8000203002B60D0BB69042B05D0BB690C2B06
:1010080019D17B69022B16D1994B1B6803F48063B5
:10101800002B05D07B68DB68002B01D1012349E256
:10102800934B5B6823F0F8527B681B691B06904959
:1010380013434B6040E07B68DB68002B23D08C4B6C
:101048001B688B4A43F480731360FFF729FA3861F1
:1010580008E0FFF725FA02463B69D31A022B01D9AB
:10106800032327E2824B1B6803F48063002BF0D034
:101078007F4B5B6823F0F8527B681B691B067C4931
:1010880013434B6018E07A4B1B68794A23F480734A
:101098001360FFF705FA386108E0FFF701FA024626
:1010A8003B69D31A022B01D9032303E2704B1B6857
:1010B80003F48063002BF0D17B681B6803F00803FE
:1010C800002B3CD07B685B69002B1CD0684BD3F8A5
:1010D8009430674A43F00103C2F89430FFF7E0F90F
:1010E800386108E0FFF7DCF902463B69D31A022BA6
:1010F80001D90323DEE15E4BD3F8943003F00203F9
:10110800002BEFD01BE05A4BD3F89430584A23F009
:101118000103C2F89430FFF7C3F9386108E0FFF71C
:10112800BFF902463B69D31A022B01D90323C1E157
:101138004F4BD3F8943003F00203002BEFD17B68B8
:101148001B6803F00403002B00F0A6800023FB7744
:10115800474B9B6D03F08053002B0DD1444B9B6D87
:10116800434A43F080539365414B9B6D03F0805392
:10117800BB60BB680123FB773E4B1B6803F480739D
:10118800002B18D13B4B1B683A4A43F48073136019
:10119800FFF786F9386108E0FFF782F902463B69F4
:1011A800D31A022B01D9032384E1324B1B6803F4C1
:1011B8008073002BF0D07B689B68012B08D12C4BE7
:1011C800D3F890302A4A43F00103C2F8903024E063
:1011D8007B689B68052B10D1254BD3F89030244AA7
:1011E80043F00403C2F89030214BD3F89030204AE2
:1011F80043F00103C2F890300FE01D4BD3F8903054
:101208001B4A23F00103C2F89030194BD3F89030F1
:10121800174A23F00403C2F890307B689B68002BC0
:1012280016D0FFF73DF938610AE0FFF739F90246B1
:101238003B69D31A41F28832934201D9032339E139
:101248000B4BD3F8903003F00203002BEDD01AE0DB
:10125800FFF726F938610FE0FFF722F902463B69EC
:10126800D31A41F28832934206D9032322E100BF00
:101278000010024000700040904BD3F8903003F00B
:101288000203002BE8D1FB7F012B05D18B4B9B6D13
:101298008A4A23F0805393657B689B6A002B00F091
:1012A80008817B689B6A022B40F0D080834BDB6807
:1012B8007B617B6903F003027B68DB6A9A4230D169
:1012C8007B6903F070027B681B6B013B1B019A4230
:1012D80027D17B6903F4FE427B685B6B1B029A4251
:1012E8001FD17B6903F400337A68926B072A14BF15
:1012F80001220022D2B2934213D17B6903F4C002C7
:101308007B68DB6B5B08013B5B059A4209D17B6913
:1013180003F0C0627B681B6C5B08013B5B069A426A
:101328006ED0BB690C2B69D0644B1B6803F08063DB
:10133800002B05D1614B1B6803F08053002B01D0B3
:101348000123B7E05D4B1B685C4A23F08073136090
:10135800FFF7A6F8386108E0FFF7A2F802463B69F4
:10136800D31A022B01D90323A4E0544B1B6803F0C2
:101378000073002BF0D1514BDA68514B13407A6857
:10138800D16A7A68126B013A120111437A68526B7A
:10139800120211437A68D26B5208013A520511437E
:1013A8007A68126C5208013A520611437A68926BB5
:1013B800120952040A4341491343CB603F4B1B684F
:1013C8003E4A43F0807313603C4BDB683B4A43F072
:1013D8008073D360FFF764F8386108E0FFF760F8BE
:1013E80002463B69D31A022B01D9032362E0334B2F
:1013F8001B6803F00073002BF0D05AE0012359E07A
:101408002E4B1B6803F00073002B52D12B4B1B682B
:101418002A4A43F080731360284BDB68274A43F05D
:101428008073D360FFF73CF8386108E0FFF738F8BD
:1014380002463B69D31A022B01D903233AE01F4B1A
:101448001B6803F00073002BF0D032E0BB690C2B53
:101458002DD01A4B1B68194A23F080731360174B61
:101468001B6803F02053002B05D1144BDB68134A8B
:1014780023F00303D360114BDB68104A23F0887311
:1014880023F48033D360FFF70BF8386108E0FFF7E7
:1014980007F802463B69D31A022B01D9032309E056
:1014A800064B1B6803F00073002BF0D101E0012309
:1014B80000E0002318462037BD4680BD00100240DA
:1014C8008C809DF980B584B000AF786039607B6806
:1014D800002B01D10123C8E0664B1B6803F007030A
:1014E8003A689A4210D9634B1B6823F00702614996
:1014F8003B6813430B605F4B1B6803F007033A68B4
:101508009A4201D00123B0E07B681B6803F0010315
:10151800002B4CD07B685B68032B07D1564B1B68AC
:1015280003F00073002B21D101239EE07B685B68E8
:10153800022B07D1504B1B6803F40033002B15D145
:10154800012392E07B685B68002B07D14A4B1B683C
:1015580003F00203002B09D1012386E0464B1B68E8
:1015680003F48063002B01D101237EE0424B9B688A
:1015780023F003027B685B683F4913438B60FEF7E7
:101588008FFFF8600AE0FEF78BFF0246FB68D31A6C
:1015980041F28832934201D9032366E0364B9B68B7
:1015A80003F00C027B685B689B009A42EBD17B6876
:1015B8001B6803F00203002B08D02F4B9B6823F015
:1015C800F0027B689B682C4913438B60294B1B688E
:1015D80003F007033A689A4210D2264B1B6823F09F
:1015E800070224493B6813430B60224B1B6803F036
:1015F80007033A689A4201D0012336E07B681B68EA
:1016080003F00403002B08D01B4B9B6823F4E06213
:101618007B68DB68184913438B607B681B6803F0A1
:101628000803002B09D0144B9B6823F460527B6895
:101638001B69DB00104913438B6000F025F8014655
:101648000D4B9B681B0903F00F030C4AD35C03F096
:101658001F0321FA03F30A4A13600A4B1B68184652
:10166800FEF7CEFE0346FB72FB7A18461037BD46DE
:1016780080BD00BF0020024000100240281D000865
:10168800000000200400002080B489B000AF0023CF
:10169800FB610023BB613D4B9B6803F00C033B617E
:1016A8003A4BDB6803F00303FB603B69002B05D072
:1016B8003B690C2B21D1FB68012B1ED1334B1B68D6
:1016C80003F00803002B07D1304BD3F894301B0AE2
:1016D80003F00F03FB6105E02C4B1B681B0903F0AB
:1016E8000F03FB612A4AFB6952F82330FB613B690F
:1016F800002B0DD1FB69BB610AE03B69042B02D1C9
:10170800244BBB6104E03B69082B01D1224BBB6130
:101718003B690C2B33D11D4BDB6803F00303BB6023
:10172800BB68022B02D0032B03D005E0194B7B6169
:1017380005E0194B7B6102E0FB697B6100BF134B3D
:10174800DB681B0903F0070301337B600F4BDB6881
:101758001B0A03F07F037A6902FB03F27B68B2FB82
:10176800F3F37B61094BDB685B0E03F00303013382
:101778005B003B607A693B68B2FBF3F3BB61BB6912
:1017880018462437BD465DF8047B704700100240B8
:10179800381D00080024F40000127A0080B586B0D5
:1017A80000AF786000233B612A4B9B6D03F08053A8
:1017B800002B03D0FFF73CFA786114E0254B9B6DB2
:1017C800244A43F080539365224B9B6D03F080536A
:1017D800FB60FB68FFF72CFA78611E4B9B6D1D4A76
:1017E80023F0805393657B69B3F5007F0BD17B6849
:1017F800802B19D97B68A02B02D902233B6113E007
:1018080001233B6110E07B68802B02D903233B61F5
:101818000AE07B68802B02D102233B6104E07B68ED
:10182800702B01D101233B610B4B1B6823F007028E
:1018380009493B6913430B60074B1B6803F0070317
:101848003A699A4201D0012300E00023184618376C
:10185800BD4680BD001002400020024080B58AB01D
:1018680000AFF860B9603B601346FB80FB68BA685C
:101878001A60FB68FA889A8007F1140300221A603C
:101888005A609A60DA601A614FF460737B613B6852
:10189800BB613B6BFB617B6B3B62FB681B6807F1C1
:1018A800140211461846FEF70FFFFB681B6819461D
:1018B800F86800F029F8FB6818462837BD4680BD4F
:1018C80080B582B000AF78607B681A687B689B88B7
:1018D80019461046FFF7A0F87B6818460837BD463A
:1018E80080BD80B582B000AF78600B46FB707B6826
:1018F80018687B689B88FA781946FFF781F900BF5A
:101908000837BD4680BD000080B48BB000AF78605A
:1019180039603B68474A934244D0464A934209D8C3
:10192800454A934224D0454A93422ED0B3F1904F72
:1019380011D078E0424A93424ED0414A934203D8AC
:10194800404A93423BD06EE03F4A934251D03F4ACF
:1019580093425BD067E03E4BDB6C3D4A43F00103AA
:10196800D3643B4BDB6C03F001037B627B6A5AE078
:10197800374BDB6C364A43F00203D364344BDB6CE1
:1019880003F002033B623B6A4DE0314BDB6C304AAB
:1019980043F00403D3642E4BDB6C03F00403FB61B8
:1019A800FB6940E02A4BDB6C294A43F00803D36407
:1019B800274BDB6C03F00803BB61BB6933E0244BA6
:1019C800DB6C234A43F01003D364214BDB6C03F038
:1019D80010037B617B6926E01D4BDB6C1C4A43F0DE
:1019E8002003D3641A4BDB6C03F020033B613B6993
:1019F80019E0174BDB6C164A43F04003D364144BD1
:101A0800DB6C03F04003FB60FB680CE0104BDB6C05
:101A18000F4A43F08003D3640D4BDB6C03F0800363
:101A2800BB60BB6800BF00BF2C37BD465DF8047BB8
:101A3800704700BF000C0048000400480008004838
:101A4800001400480010004800180048001C004816
:101A58000010024080B582B000AF786039607B68C2
:101A68003A681A607B681B6801211846FFF739FF3E
:101A78007B6818460837BD4680BD80B582B000AF88
:101A8800786039603B68012B06D17B681B680021B0
:101A98001846FFF726FF05E07B681B6801211846FA
:101AA800FFF71FFF00BF0837BD4680BD80B485B073
:101AB80000AFF860B9607A603B60FB68BA681A608A
:101AC800FB687A685A60FB683A689A60FB6818464F
:101AD8001437BD465DF8047B704780B584B000AF0D
:101AE800F860B9607A603B60FB681B68B9681846A3
:101AF800FFF7C3FFFB685B6879681846FFF7BDFF0F
:101B0800FB689B6839681846FFF7B7FF00BF1037B6
:101B1800BD4680BD80B584B000AFFEF758FCFEF727
:101B28004FFB4FF47A70FEF7C7FC0023FB600023DD
:101B3800BB6000237B607B68BA68F9682148FFF7BF
:101B4800CCFF4FF47A70FEF7B7FC0123FB6001234A
:101B5800BB6000237B607B68BA68F9681948FFF7A7
:101B6800BCFF4FF47A70FEF7A7FC0023FB6001234B
:101B7800BB6001237B607B68BA68F9681148FFF78E
:101B8800ACFF4FF47A70FEF797FC0123FB6000234B
:101B9800BB6001237B607B68BA68F9680948FFF776
:101BA8009CFF4FF47A70FEF787FC0123FB6001234A
:101BB800BB6001237B607B68BA68F9680148FFF75E
:101BC8008CFFAEE74C00002080B584B002AF78608F
:101BD80039607B68012B36D13B684FF6FF72934220
:101BE80031D100230193012300930123802220494E
:101BF8002048FFF733FE00230193012300930123BC
:101C08004FF480721A491C48FFF728FE00230193FD
:101C18000123009301234FF4007215491748FFF779
:101C28001DFE14491648FFF715FF13491548FFF71D
:101C380011FF12491448FFF70DFF134B114A1049C1
:101C48001248FFF733FF7B68002B0DD13B684FF636
:101C5800FF72934208D10948FFF732FE0648FFF7A2
:101C68002FFE0448FFF72CFE00BF0837BD4680BD95
:101C78000010004828000020300000203800002014
:101C88004000002044000020480000204C000020B4
:101C980080B500AF4FF6FF710120FFF795FF80BDBB
:101CA80080B500AF4FF6FF710020FFF78DFF80BDB4
:101CB80070B50D4E0D4CA41BA4100025A54209D1EA
:101CC8000B4E0C4C00F020F8A41BA4100025A542D4
:101CD80005D170BD56F8253098470135EEE756F81E
:101CE800253098470135F2E7681D0008681D00088F
:101CF800681D0008701D000802440346934200D185
:101D0800704703F8011BF9E7F8B500BFF8BC08BC39
:101D18009E467047F8B500BFF8BC08BC9E467047A1
:101D28000000000000000000010203040607080983
:101D3800A0860100400D0300801A060000350C0043
:101D480040420F0080841E0000093D0000127A0006
:101D58000024F40000366E010048E801006CDC0243
:081D6800AD010008991C000800
:081D700089010008A91C00080C
:0C1D780000093D00100000000100000008
:040000050800038567
:00000001FF
